:100000000C9434000C9446000C9446000C94D900D7
:100010000C94E3000C94ED000C9446000C94460004
:100020000C9446000C9446000C9446000C94460038
:100030000C9446000C9446000C9446000C94460028
:100040000C9446000C9446000C94F7000C94460067
:100050000C9446000C9446000C9446000C94460008
:100060000C9446000C94460011241FBECFEFD8E03C
:10007000DEBFCDBF11E0A0E0B1E001C01D92A93408
:10008000B107E1F70E9441010C948D050C9400002A
:10009000419A33991FC080E04198419A3399806416
:1000A0004198419A339980624198419A339980618D
:1000B0004198419A339988604198419A3399846074
:1000C0004198419A339982604198419A339981606D
:1000D0004198089580E8E0CF87FD27C04298419A73
:1000E000419886FD27C04298419A419885FD27C0D6
:1000F0004298419A419884FD27C04298419A41987C
:1001000083FD27C04298419A419882FD27C04298BA
:10011000419A419881FD27C04298419A419880FDBB
:1001200027C04298419A41980895429A419A41982D
:1001300086FFD9CF429A419A419885FFD9CF429AFA
:10014000419A419884FFD9CF429A419A419883FFBE
:10015000D9CF429A419A419882FFD9CF429A419A87
:10016000419881FFD9CF429A419A419880FFD9CFD7
:10017000429A419A41980895409A40980C946C0094
:100180001F93CF93DF93EB01142F0E94BC00112328
:1001900029F089910E946C001150D9F7409ADF91A3
:1001A000CF911F9108954AE06EE171E080E00C94D8
:1001B000C0001F920F920FB60F9211240F900FBE26
:1001C0000F901F9018951F920F920FB60F92112447
:1001D0000F900FBE0F901F9018951F920F920FB6A1
:1001E0000F9211240F900FBE0F901F9018951F9221
:1001F0000F920FB60F9211248F939F93EF93FF935B
:100200008091C00087FF19C08091C00087FFFCCF9C
:100210008091C0008C7101F18091C6008091010134
:100220008B31A1F0809100018260809300018BE10D
:100230008093010185EA80931C01FF91EF919F91CA
:100240008F910F900FBE0F901F9018958091000115
:10025000816080930001F1CF9091C60080910101EF
:100260008B31A1F380910101E82FF0E0EE5FFE4FAA
:1002700090838F5F809301018091C00087FDC4CF80
:10028000DCCFCF93DF9300D000D000D0CDB7DEB766
:1002900010921D01399A3A9A3B98389A409A549A8A
:1002A000569A559A5798209852988AE680931E013C
:1002B00080911F01807C80931F01809120018878AC
:1002C00083638093200180912101807C80618093F1
:1002D000210180E18093280180912201807C80614E
:1002E000809322018BE1809327015E985D9A0E94A2
:1002F000D3005E985D9A52985A9880916800846005
:100300008093680080916D00846080936D001092EE
:10031000C50083E38093C4008091C0008D7F8093EB
:10032000C00088E18093C10086E08093C200809184
:10033000C10080688093C10083B7817F83BF7894B8
:10034000AAE29A2EB8E1AB2EB12C13E0812E83B72E
:100350008E7F83BF80916D008B7F80936D00ECE971
:100360004E2E55245394612C712CC12CD12C760126
:10037000C394809101018B31F9F0312C80911D01E2
:10038000811141C03110F5CF80916D008460809360
:100390006D0083B7816083BF85B7806685BF8F7D21
:1003A00085BFF894809101018B3109F4D7C04A9937
:1003B000D5C078948895CBCF80911C01853A41F5C2
:1003C000F894109201018091C00087FFFCCF8091CA
:1003D000C0008C7119F08091C600F5CF8091C600E5
:1003E0008A3589F7789480911D01882309F4C1CF5B
:1003F00010921D015E985D9A3324339480911D0103
:10040000882309F4BFCF4A9949C080E0382ABACF7F
:1004100080910201813009F4B8C008F0A1C0309188
:100420000301409104015091050160910601709112
:10043000070149835A836B837C8320911D0180923D
:100440000201222309F4E4C0313009F462C184E0DE
:100450008093030182EE90E0A0E0B0E0809304017D
:1004600090930501A0930601B093070193E01092C9
:100470000101E3E0F1E08091C00085FFFCCF9093A3
:10048000C60031E0ED31F30711F09191F4CF809186
:10049000C00086FFFCCF3324339470CF2090280116
:1004A00084E20E94BC00222049F009E211E00E948F
:1004B0004800F80181938F012A94C9F7409A40912E
:1004C0002801493108F048E18091C00085FFFCCF48
:1004D00082E08093C6008091C00086FFFCCF442359
:1004E00061F0942FE9E2F1E08091C00085FFFCCF3C
:1004F00081918093C6009150B9F78091C00086FF2A
:10050000FCCF4831A1F050E09501241B31098091C6
:10051000C00085FFFCCF9092C6008091C00086FF8E
:10052000FCCF5F5F852F90E08217930781F7809162
:10053000C00085FFFCCF4093C6008091C00086FFBD
:10054000FCCF8091C00085FFFCCF1092C600809147
:10055000C00086FFFCCF81E0382A14CF7894F7CE14
:100560008230F1F18092020182E08093030183EDF9
:1005700091E0A0E0B0E08093040190930501A09386
:100580000601B093070193E072CF8091030180923E
:1005900002011092030123E531E040E050E0209396
:1005A0000401309305014093060150930701863002
:1005B00009F439C108F058C0823009F4F4C108F0D8
:1005C000CEC0813009F44FC18092030140920401F2
:1005D00050920501609206017092070193E047CFA7
:1005E00080911D01813009F462C08092020185E092
:1005F0008093030188EA91E0A0E0B0E080930401D9
:1006000090930501A0930601B093070193E02FCFCB
:100610001092030187EE90E0A0E0B0E08093040127
:1006200090930501A0930601B0930701363009F4B9
:10063000D9C008F05FC0323009F488C1353009F400
:100640006FC1313009F473C08092030188E491E0F6
:10065000A0E0B0E08093040190930501A09306010F
:10066000B093070193E003CF893009F4A8C008F0E4
:1006700097C0873009F4A8C1883009F0A5CF8091D0
:100680001F0185FB882780F98D831E822D813E8185
:10069000C901AA2797FDA095BA2F809304019093D2
:1006A0000501A0930601B093070193E0E0CE5E98A8
:1006B0005C9A5D9A4091280163E071E080E20E94BB
:1006C000C0005E9A4A9BFECF5E985C985E9A5D9AE7
:1006D00080920201109203018FEB91E0A0E0B0E064
:1006E0008093040190930501A0930601B093070144
:1006F00093E0BDCE383009F4F6C008F4CEC03930EE
:1007000009F4B4C03A3009F09FCF4093000193E060
:10071000AECE1092030187EE90E0A0E0B0E08093AF
:10072000040190930501A0930601B09307014230A4
:1007300051056105710508F49EC184E080930301B1
:100740008FEE90E0A0E0B0E080930401909305016B
:10075000A0930601B09307019091020188CE8330E7
:1007600009F417C1853009F02FCF8091200190E066
:100770009595879595958795959587959595879561
:1007800087709927AA2797FDA095BA2F8093040117
:1007900090930501A0930601B093070193E067CE03
:1007A0008A30E9F08B3009F00FCFC0920401D0926B
:1007B0000501E0920601F092070193E058CE809186
:1007C00022018F7390E0A0E0B0E080930401909349
:1007D0000501A0930601B093070193E048CE8091F4
:1007E0000001F0CF80912001982F977099F080E060
:1007F000E82FEB5FF0E0E25EFE4FA1E0B0E0AC0F6F
:10080000BD1FA80FB11D2C9120838F5F8913F0CFDE
:1008100080912001887F892B809320010E94D30042
:100820009091020124CE8091200190E095958795CA
:10083000959587959595879595958795877009F4F2
:10084000F4C090E0E92FF0E0EC5FFE4FA92FAB5F22
:10085000B0E0A25EBE4F2C9120839F5F8913F2CF40
:100860009091020104CE80911D01ACCF4931510518
:100870006105710508F4DBC084E0809303018FE318
:1008800091E0A0E0B0E08093040190930501A09373
:100890000601B093070193E0EACD20912001022FD9
:1008A00010E01595079515950795159507951595DC
:1008B000079507701127C80182959295907F982718
:1008C000807F9827922F9F78982B909320010E94E9
:1008D000D300402FBE016F5F7F4F82E20E94C000B5
:1008E00090910201C4CD411551056105710509F4CE
:1008F000E3C0413051056105710509F4D3C084E0BE
:10090000809303018BE391E0A0E0B0E080930401C9
:1009100090930501A0930601B093070193E0A7CD42
:10092000942F9150943008F495C084E08093030193
:100930008BE291E0A0E0B0E0809304019093050188
:10094000A0930601B093070193E091CD41155105A5
:100950006105710509F4D7C0413051056105710584
:1009600009F4BDC0423051056105710509F453C059
:1009700084E0809303018BE091E0A0E0B0E08093FD
:10098000040190930501A0930601B093070193E041
:100990006ECD109204011092050110920601109282
:1009A000070193E064CD8091270190E086FFA7C006
:1009B000880F892F881F990B892B09F49BC082E02F
:1009C00090E0A0E0B0E0B8CF8091200190E0959554
:1009D0008795959587959595879595958795182FE2
:1009E000177083E20E94BC00112389F01150012F7F
:1009F00010E00B5F1E4F84E0282E81E0382E0E940D
:100A00004800F10181931F01E017F107C1F7409AF7
:100A1000909102012CCD80912701806C8093270159
:100A20000E94D3009091020122CD93E020CD8091CD
:100A30002101807C842B80932101409328018091A7
:100A40002201807C842B809322010E94D30090910C
:100A500002010DCD20E1429FC0011124909120019F
:100A6000987F942B9F78982B909320010E94D3001D
:100A700090910201FCCC822F90E0A0E0B0E04817FA
:100A800059076A077B0709F4EBCE4115510561054B
:100A90007105E1F45E985D9A898180931D019091C2
:100AA0000201E5CC80911F01806280931F010E94AA
:100AB000D30090910201DBCC80911F018F7D809348
:100AC0001F010E94D30090910201D1CC4130510509
:100AD0006105710509F75C985E9A5D9ADDCF80919A
:100AE00027018F738064809327010E94D300909127
:100AF0000201BDCC81E090E0A0E0B0E01DCF80E03D
:100B000090E0DC0119CF809127018F73809327013A
:0E0B10000E94D30090910201AACCF894FFCF6E
:00000001FF
